:10005800219710E01883212F10E001E00E94B3607F
:1000680029813A81131709F4021718F41881139596
:10007800F1CF1881089500919404109195041030DF
:1000880009F40030C9F0E0919404F0919504319698
:1000980001911191219130813A932A931A930A93ED
:1000A80009E511E01A930A9328D0269610E000E09B
:1000B80000939404109395040895CF93DF93DBDFA6
:1000C800DF91CF9100910504109106042091070457
:1000D80030910804D801F9013D812C811B810A81E6
:1000E8003F1729F42E1719F41B1709F40A1711F4EE
:1000F8001FEF02C00E943B5808950E9479581FEFD5
:10010800089510918F04123009F03FC00091C00487
:100118001091C104332722273A932A931A930A93FA
:1001280009E511E01A930A93C8DF2696E9E5F1E09C
:100138000191119121913081313429F4213619F43A
:10014800123509F4023509F1EDE3F3E0019111915B
:1001580021913081313629F4213419F4123709F408
:10016800023799F0EDE3F3E001911191219130818B
:100178003D3429F4203919F4183509F40B3E29F0D7
:100188000FEF1FEF2FEF3FEF7EC01C81109539F165
:100198001D81103081F410918F04123019F4E1E4BC
:1001A800F3E00FC00091C2041091C3042091C4046D
:1001B8003091C50468C010918F04123039F4E5E419
:1001C800F3E001911191219130815DC00091C60445
:1001D8001091C7042091C8043091C90454C01D81EE
:1001E8001030F9F410918F04123059F4E1E4F3E07F
:1001F8003B812A81198108810193119321933083CE
:100208000CC03B812A81198108810093C204109394
:10021800C3042093C4043093C5041FEF1093B004A3
:100228001BC010918F04123059F4E5E4F3E03B81D0
:100238002A811981088101931193219330830CC07D
:100248003B812A81198108810093C6041093C70451
:100258002093C8043093C90410918F0412301FEF03
:1002680009F010E081F40091C0041091C104332713
:1002780022273A932A931A930A9309E511E01A93CD
:100288000A933BDF269608951091B0041123C9F113
:1002980010918F04123051F410E01A931A931A93A4
:1002A8001A931A931A932DDF269608C00091C20458
:1002B8001091C3042091C4043091C504A881B98168
:1002C800EA81FB814C81442329F00A0F1B1F2E1F52
:1002D8003F1F0DC00A1B1B0B2E0B3F0B40F4015098
:1002E800104020403040209530951095009540E012
:1002F8004A934FEF4A933A932A931A930A9301DF4A
:1003080026960895679710E010938F0400E020E088
:1003180030E000934F04109350042093510430931D
:1003280052040093C0041093C1040FEF1FEF2FEF86
:100338003FEF0093050410930604209307043093BD
:10034800080400E010E020E030E03A932A931A9382
:100358000A9309E511E01A930A93AFDE26961091E5
:1003680059011E8B193E10E009F01FEF1F931E89DB
:100378001B3E10E009F01FEF0F91102309F44DC048
:1003880010911B03143039F0163029F01B3019F086
:100398001C3009F01E3011F012E03BC014E0EFE40D
:1003A8001D8710911F03FD851193FD87EC87109120
:1003B80020031193FD87EC87109121031193FD878A
:1003C800EC87109122031193FD87EC8700914F046D
:1003D8001091500420915104309152043A932A9379
:1003E8001A930A9309E511E01A930A9366DE269692
:1003F800109159011E8B193E10E009F01FEF1F9351
:100408001E891B3E10E009F01FEF0F91102329F001
:1004180011E01093580110E039C2E9E5F1E0FA93D0
:10042800EA93E881F9813B960191108100935E047B
:1004380010935F041A930A930BDE23961093B1046A
:1004480000915E0410915F04D80120E230E0E89446
:1004580065F80E949F5F0093600410936104E8812F
:10046800F9817096108110935504E881F9813D96C1
:1004780000810093660411271A930A93E9DD2396F5
:100488001093B50420914F0430915004E881F9810C
:100498003E9601911081020F131F0093530410938D
:1004A8005404E881F98171960191108100935A04EE
:1004B80010935B0400915E042091B50410915F04D1
:1004C8000E94B3600093B6041093B70400915A04D5
:1004D80010915B04103009F4003009F061C012E09B
:1004E80010938F0414E01093A70412E01093A8044B
:1004F800EDE7F1E0F98BE88B0081118122813381EE
:100508003D872C871B870A8700935604109357044E
:10051800E5E800811181228133810093BC041093A6
:10052800BD042093BE043093BF0420914F04309142
:1005380050040091890110918A01020F131F009342
:10054800C0041093C10400915304109154040F93F4
:100558001F933D852C851B850A850F931F932F9329
:100568003F9300915504112733272227E89465F813
:100578000E94CE5F3F912F91020F131F00935C04DE
:1005880010935D04009358041093590417E01093D6
:10059800AD0410E000E80093BA041093BB045FC0F8
:1005A80011E010938F0412E01093A70411E0109348
:1005B800A804E881F9817696019110810093560488
:1005C80010935704A0915504BB27E89465F80E943E
:1005D8007D5F3091540420915304020F131F009340
:1005E8005804109359040F931F9300915A041091C3
:1005F8005B04A0E2E89465F80E947D5F2091B10455
:100608000E9497603F912F91020F131F00935C0483
:1006180010935D04A0915A04B0915B0400916004AA
:1006280010916104E89465F80E949E5F00936C0441
:1006380010936D0418E01093AD0411E000E00093EE
:10064800BA041093BB040FEF1FEF2FEF3FEF009397
:10065800C2041093C3042093C4043093C5041091BA
:10066800660411501093B40400915E0410915F0465
:10067800015010400093B2041093B304E881F9814B
:10068800739601911081103009F4003041F0E8812F
:10069800F9817396019110813327222707C0E881D9
:1006A800F981B096019111912191308100936204F2
:1006B80010936304209364043093650400915C04F0
:1006C80010915D04009392041093930400916204C6
:1006D80010916304EBE00E94A360EAE00E94BF600F
:1006E80000934704109348042093490430934A0424
:1006F8000091620410916304E881F9813E96A1910A
:10070800B081FF27EE27A150B040E040F040E095CF
:10071800F095B095A0953091650420916404A00FE0
:10072800B11FE21FF31F0091560410915704000FE8
:10073800111F3327222701501040204030402095B8
:100748003095109500950A0F1B1F2E1F3F1FD801CB
:100758002F93F32F00915A0410915B04332722271B
:10076800E4E00E94A36001501040204030402095F2
:10077800309510950095EF910A0F1B1F2E1F3F1FF4
:10078800E091B5040E94A360009367041093680485
:100798002093690430936A04229610E01A9310E0BB
:1007A8001A9300E010E020E030E03A932A931A937D
:1007B8000A93A7DC26960F931F932F933F930091DC
:1007C8006704109168042091690430916A04D80183
:1007D800F9013F912F911F910F913F1729F42E177F
:1007E80019F41B1709F40A1720F00E945D122496C9
:1007F80003C01FEF1093B004AFEAB3E010E0E2E0EB
:10080800F0E031960000319711F01D93FCCFA1EB79
:10081800B3E010E0E4E5F0E031960000319711F024
:100828001D93FCCF009158041091590433272227B7
:100838000093160410931704209318043093190496
:10084800EAE1F4E0EF93FF933196FA93EA931CE020
:100858001A9317EF61221FEB61221CE50E94115FBA
:100868001CE00881101BFF91EF911083239610E084
:100878001093580111E01093750410E000E0009304
:100888009404109395040E94F5581FEF0895209141
:1008980053043091540400916E0410916F04020FB8
:1008A800131F332722273A932A931A930A9309E5A9
:1008B80011E01A930A9301DC269608952497209153
:1008C80053043091540400916E0410916F04020F88
:1008D800131F332722273B832A83198308833A93DC
:1008E8002A931A930A9309E511E01A930A9305DCEF
:1008F8002696109155041230C1F4FB81EA81B98122
:10090800A8810091560410915704332722270A0F13
:100918001B1F2E1F3F1F3A932A931A930A9309E528
:1009280011E01A930A93E9DB269608953B812A8100
:1009380019810881E091A8040E94BF60F8013695EA
:100948002795179510936E0420936F04EF7FF1702D
:10095800E0937004F093710408953B812A81198112
:1009680008813A932A931A930A93E0DF24968FDF3B
:10097800E9E5F1E00091700410917104E00FF11FB6
:100988000191119121913191A0918F04A23019F018
:100998002227332708953F7008953F812E811D81B6
:1009A8000C813A932A931A930A93C0DF24966FDF37
:1009B800E9E5F1E00091700410917104E00FF11F76
:1009C8001981088101931193A0918F04A23021F419
:1009D8003B812A812193308371DF249608952B97D8
:1009E80010E01093AF0453DF209156043091570460
:1009F80010916F0400916E04131709F4021708F0A0
:100A0800B1C000916E0433272227E091AD04109104
:100A18006F040E94BF603B832A8319830883009177
:100A2800700410917104123009F4003008F07EC08F
:100A3800E9E5F1E00091700410917104E00FF11FF5
:100A4800FE83ED8310918F04103059F4ED81FE81FF
:100A580000811181103009F4003010E091F41FEF8B
:100A680010C0ED81FE8100811181228133813030F7
:100A780029F4203019F4103009F4003010E009F49A
:100A88001FEF1C83112309F443C06091A704772743
:100A9800A0917004B0917104A60FB71FA0937004C1
:100AA800B0937104FB81EA81B981A8810091700437
:100AB8002091A804109171040E949760332722277F
:100AC8000A0F1B1F2E1F3F1F0150104020403040AF
:100AD8003A87298718870F830F930091670410912D
:100AE80068042091690430916A04D801F9013A85B3
:100AF800298518850F913F1729F42E1719F41B170C
:100B080009F40A1778F53A85298518850F8131C0C7
:100B18006091A7047727A0917004B0917104A60F83
:100B2800B71FA0937004B093710479CFA0916E049D
:100B3800B0916F041196A0936E04B0936F04209146
:100B480056043091570410916F0400916E041317E6
:100B580009F4021738F410E000E0009370041093D1
:100B6800710441CF1FEF1093AF040FEF1FEF2FEF6A
:100B78003FEF089510E000E000936E0410936F04B7
:100B880000937004109371041FEF1093B00410E0E9
:100B98001A9301E010E020E030E03A932A931A9388
:100BA8000A9372DB25961BDF2B96089500915C044F
:100BB80010915D0433272227D801F9013B812A814E
:100BC800198108813F1729F42E1719F41B1709F406
:100BD8000A1710E008F01FEF1F933B812A81B981A3
:100BE800A881F9013091650420916404109163048F
:100BF800009162043F1729F42E1719F41B1709F402
:100C08000A1710E008F01FEF0F911023F9F0FB818D
:100C1800EA81B981A88100915C0410915D043327B1
:100C280022270150104020403040209530951095E3
:100C380000950A0F1B1F2E1F3F1FE091B5040E944D
:100C4800A3600E5F1F4F2F4F3F4F04C000E010E01E
:100C580020E030E008950091670410916804209125
:100C6800690430916A04D801F9013B812A8119810C
:100C780008813F1729F42E1719F41B1709F40A17CE
:100C88001FEF10F009F011271F933B812A8119816A
:100C98000881303029F4203019F4103009F401307B
:100CA80010E011F008F01FEF0F911023C9F0A09188
:100CB8005C04B0915D04FF2722272F933B812A8192
:100CC800198108810250104020403040E091B5045D
:100CD8000E94BF60EF910A0F1B1F2E1F3F1F04C009
:100CE8000FEF1FEF2FEF3FEF08950881083F78F0CF
:100CF80019811F3F61F410918F04113031F01B816D
:100D08001F3028F00A810F3F11F41FEF01C010E0D7
:100D1800089508810F3F79F419811F3F61F41091FC
:100D28008F04113031F01B811F3028F00A810F3FEA
:100D380011F41FEF01C010E00895229710E0188306
:100D480011E01983193028F5FE013496098111271D
:100D580001501040E00FF11F10811032D1F00881CE
:100D680003950883EA81FB811127E00FF11FEF93B8
:100D7800FF93FE013496098101501040E00FF11FE6
:100D88001081FF91EF911083198113951983112315
:100D9800C9F61C85103299F1088103950883EA8108
:100DA800FB811127E00FF11F1EE2108319E0198360
:100DB8001C3028F5FE013496098111270150104096
:100DC800E00FF11F10811032D1F0088103950883DC
:100DD800EA81FB811127E00FF11FEF93FF93FE01DA
:100DE8003496098101501040E00FF11F1081FF91E6
:100DF800EF9110831981139519831123C9F6EA819C
:100E0800FB81188110830895239711E019831A83B1
:100E1800FE01359609811127E00FF11F10811E325E
:100E280091F41A81193008F093C0EB81FC810A8192
:100E3800112701501040E00FF11F10E210831A81B2
:100E480013951A83EECFFE01359609811127E00F1D
:100E5800F11F10811A3259F51A89109509F05AC0F4
:100E68001A81193088F41A81193000F5EB81FC8158
:100E78000A81112701501040E00FF11F1FE3108372
:100E88001A8113951A83EFCF1A811C3070F4EB8105
:100E9800FC810A81112701501040E00FF11F1FE368
:100EA80010831A8113951A83EFCF6FC051C0FE01CA
:100EB800359609811127E00FF11F10811F3369F45E
:100EC8001A89109539F5EB81FC810A8111270150A7
:100ED8001040E00FF11F1FE337C0FE01359609816E
:100EE8001127E00FF11F10811C3299F010F4103017
:100EF80048F41E3271F01F3261F0103451F020F4C2
:100F08001A3310F0189405C01F3F19F01F3708F066
:100F1800189411F410E03AC0EB81FC810A81112782
:100F280001501040E00FF11FEF93FF93FE0135963B
:100F380009811127E00FF11F1081113618F01B37B6
:100F480008F41052FF91EF9110831A8113951A83B8
:100F58000981039509831D81011709F028F41A8175
:100F68001B3009F008F454CF1A811C3070F4EB815F
:100F7800FC810A81112701501040E00FF11F10E297
:100F880010831A8113951A83EFCF1FEF08952197C5
:100F980011E018831C3090F5FE013C96088111275A
:100FA80001501040E00FF11F1081113618F01B3767
:100FB80008F410521F93FE01319608811127015041
:100FC8001040E00FF11F1081113618F01B3708F49C
:100FD80010520F91011769F0FE013C960881112704
:100FE80001501040E00FF11F10811F3311F010E085
:100FF80006C0188113951883112361F61FEF089511
:1010080011E0109375043B812A81198108810093AE
:1010180076041093770420937804309379040F931F
:101028001F932F933F93009158041091590433272D
:101038002227D801F9013F912F911F910F913F1756
:1010480029F42E1719F41B1709F40A1710E009F4EC
:101058001FEF10937404112309F01FEF1F931091D1
:101068008F04123010E009F41FEF0F91102381F064
:101078000091BC041091BD042091BE043091BF04BE
:1010880000937A0410937B0420937C0430937D04AE
:1010980010917404112309F01FEF109511F10091BC
:1010A80076041091770420917804309179043A936A
:1010B8002A931A930A937ADD249600937A0410935C
:1010C8007B0420937C0430937D0400E010E020E052
:1010D80030E000937E0410937F04209380043093C3
:1010E800810410E000E000937204109373040895E3
:1010F800009175040395009375041091600401171D
:1011080009F008F4C3C011E010937504A0917204AB
:10111800B09173041196A0937204B0937304109164
:101128007404112309F01FEF1F9310918F041130DD
:1011380010E009F41FEF0F91102309F120916C04BE
:1011480030916D041091730400917204131709F41F
:10115800021709F483C0A0917604B0917704E09156
:101168007804F0917904119608F43196A0937604E6
:10117800B0937704E0937804F093790487C0A09142
:101188007604B0917704E0917804F091790411968F
:1011980008F43196A0937604B0937704E09378042A
:1011A800F093790400915C0410915D0433272227A1
:1011B8000150104020403040209530951095009502
:1011C8000A0F1B1F2E1F3F1FD801F9010091B404FD
:1011D8001127332722270A231B232E233F233030AE
:1011E80029F4203019F4103009F4003009F04EC009
:1011F80000917A0410917B0420917C0430917D0445
:101208003A932A931A930A9370DD2496112331F5A1
:1012180000917A0410917B0420917C0430917D0424
:1012280000937E0410937F042093800430938104FC
:101238003A932A931A930A9390DB249600937A049C
:1012480010937B0420937C0430937D043A932A9373
:101258001A930A934ADD2496112311F010E017C05F
:1012680000917A0410917B0420917C0430917D04D4
:101278003A932A931A930A93EEDC24960093760401
:101288001093770420937804309379041FEF08951E
:1012980000917604109177042091780430917904B4
:1012A8003A932A931A930A9309E511E01A930A9339
:1012B8000E9461002696109529F015E010935801B8
:1012C80010E016C010E01093580100917504015009
:1012D8001040A0E2B0E0E89465F80E947D5FF1E07C
:1012E800E9E5E00FF11F1081103010E009F01FEF61
:1012F800089523971C89112351F03B892A8919895C
:1013080008893A932A931A930A937ADE2496C0DFBF
:10131800112309F477C0FE013196EF93FF930091F2
:101328007504112701501040A0E2B0E0E89465F878
:101338000E947D5FF1E0E9E5E00FF11F8F01FF9169
:10134800EF9101931083E981FA813B9610811F3058
:1013580010E009F01FEF1F93E981FA817A96019155
:101368001081103009F4003010E009F01FEF0F91E0
:10137800102309F443C00B8110E0011751F0E981F3
:10138800FA813B9600811B81011710E061F01FEF85
:101398000AC0E981FA813B9600811C81102301175C
:1013A80010E009F41FEF1883112341F1E981FA8154
:1013B8001081153019F01E3209F0153EF9F0E98157
:1013C800FA8110811F3F19F01F3708F01894B1F007
:1013D800FE0135962B972BE030E0DE010E94135A70
:1013E800EC85FD852B972BE030E0DE010E94135A37
:1013F800CEDD6796112311F01FEF05C079DE109539
:1014080009F485CF10E008951FEF1A93E981FA8156
:10141800F19601911191219130813A932A931A936F
:101428000A93ED81FE8171962B972BE030E0DE0167
:101438000E94135A10E01A9310E11A935ADF659626
:101448001123C1F1E881F9817196EF93FF9300911F
:101458007504112701501040A0E2B0E0E89465F847
:101468000E947D5FF1E0E9E5E00FF11FBF91AF91C8
:1014780020E230E00E94135A1FEF1093AE04E88177
:10148800F981B5960191108133272227E0E10E9466
:10149800BF60D8012F933F93E881F981BB960191F2
:1014A800108133272227FF91EF910A2B1B2B2E2B1C
:1014B8003F2B04C000E010E020E030E008952997B9
:1014C8003C852B851A85098538872F831E830D83D4
:1014D80000E010E020E030E03C832B831A8309838E
:1014E80038852F811E810D813A932A931A930A9386
:1014F80034DA249638872F831E830D83303029F4FD
:10150800203019F4103009F4003079F1C0D9E9E538
:10151800F1E00091700410917104E00FF11F1127A0
:101528001193119300918F04023011F411931083D9
:10153800C5D92496FE013196A981BA818B819C81F7
:10154800119608F40196A083B1838283938338852A
:101558002F811E810D813A932A931A930A93C5DB32
:1015680024961883112309F4BBCF1FEF1093B004FE
:101578001A933D812C811B810A813A932A931A93ED
:101588000A930E944801259608952197A981BA8156
:10159800EAE1F3EC689464F80E94CA5E51F1A9E0AC
:1015A800B4E010E2EBE0F0E031960000319711F082
:1015B8001D93FCCF1CE5012FE981FA8161E00E94AF
:1015C800C05B1883103081F4E981FA811081188397
:1015D8001B3009F070F4E981FA813196EF93FF939B
:1015E800E9E0F4E0088110C0188111501B3019F0AF
:1015F80010F010E01BC0E981FA813196EF93FF9358
:10160800E9E0F4E0088101501127DF01FF91EF9133
:1016180098010E94135AE981FA81EF93FF9311E030
:101628001F93188170E00E94585A1FEF089525975C
:1016380038852F811E810D813A932A931A930A9334
:101648000ADB24963B832A83198308833F3F29F4C6
:101658002F3F19F41F3F09F40F3F11F410E02BC07E
:10166800CF93DF930E943F00DF91CF9110916604E2
:101678001C833B812A81198108813A932A931A9302
:101688000A93009166041127332722273A932A9355
:101698001A930A930E940D1829961C81103051F054
:1016A800CF93DF930E949218DF91CF911C811A95F6
:1016B8001C83F3CF1FEF0895249710E2109383043F
:1016C800E2E8F4E0EF93FF933196FA93EA931CE093
:1016D8001A9317EF61221FEB6122EF81F8850E94B0
:1016E800315C1CE00881101BFF91EF911083239659
:1016F80010918204113010E011F008F01FEF1F93D1
:10170800E2E8F4E000811127E00FF11F10811C3599
:1017180010E009F41FEF0F91102341F0E2E8F4E024
:10172800108111501C3008F01CE0108310918304C4
:101738001C3509F418C1A2E8B4E0EAE1F3EC6894B6
:1017480064F80E94CA5EC9F4E2E8F4E0EF93FF93FC
:101758003196FA93EA931CE01A9317EF61221FEB74
:101768006122EAE1F4E00E94315C1CE00881101B70
:10177800FF91EF9110832396F6C0AAE1B4E0EBE164
:10178800F3EC689464F80E94CA5E99F5A2E8B4E0A4
:10179800EAE1F3EC689464F80E94CA5E10E009F08C
:1017A8001FEF1F93109183041E3210E009F41FEFFE
:1017B8000F91102351F0E2E8F4E0EF93FF9311E06A
:1017C8001F9370E00E94585AE1CF109183041C3592
:1017D80009F4C9C0EBE1F3ECEF93FF93E2E8F4E01E
:1017E800EF93FF931CE01F9311E092E00E94A05A30
:1017F800BAC010E01B83A2E8B4E0EAE1F3EC689415
:1018080064F80E94CA5E10E009F01FEF1F93109160
:1018180083041E3210E009F41FEF0F91102359F0D2
:10182800E2E8F4E0EF93FF9311E01F9370E00E9469
:10183800585A1FEFDFCF1B81112309F479C010918B
:101848001A041A83103071F0EAE1F4E00A811127D2
:10185800E00FF11F10811C3529F01A811A951A839F
:101868001F3F81F71A81123010F5A2E8B4E0EAE1CF
:10187800F3EC689464F80E94CA5E09F074C0E2E868
:10188800F4E0EF93FF933196FA93EA931CE01A93EE
:1018980017EF61221FEB61221CE50E94115F1CE01B
:1018A8000881101BFF91EF91108323965CC01A8169
:1018B8001A951A8300918204100F188311E0198376
:1018C8001A811A931A810881011798F0EDE1F3EC57
:1018D800EF93FF93E2E8F4E0EF93FF931CE01F938C
:1018E80011E092E00E94A05A1A8113951A831123DD
:1018F80051F72196E2E8F4E0EF93FF933196FA93DB
:10190800EA931CE01A9317EF61221FEB6122EAE1C8
:10191800F4E001E01D810E94165C1CE00881101BA8
:10192800FF91EF91108323961881109382041BC0B6
:10193800EBE1F3ECEF93FF93E2E8F4E0EF93FF932E
:101948001CE01F9311E092E00E94A05AEAE1F4E043
:10195800EF93FF93E2E8EF93FF931CE01F9311E0EE
:1019680090E00E94A05A10918204113010E011F00A
:1019780008F01FEF1F93E2E8F4E000811127E00F61
:10198800F11F10811C3510E009F41FEF0F9110238F
:1019980041F0E2E8F4E0108111501C3008F01CE03E
:1019A800108308952697E2E8F4E0EF93FF933196C9
:1019B800FA93EA931CE01A9317EF61221FEB612256
:1019C800E985FA850E94315C1CE00881101BFF91B3
:1019D800EF9110832396A2E8B4E0EAE1F3EC68946F
:1019E80064F80E94CA5E19F1109183041C3539F419
:1019F80000915804109159043327222720C01091D0
:101A080083041E32A1F4009158041091590433271D
:101A180022273D832C831B830A83CF93DF93EE8198
:101A2800FF81FA93EA9348DEDF91CF910CC00091D1
:101A380016041091170420911804309119043D835D
:101A48002C831B830A8310918204103010E009F064
:101A58001FEF1F93109183041C3510E009F41FEF4A
:101A68000F91102349F0E2E8F4E0EF93FF9311E0BF
:101A78001F9370E00E94585A10918204103010E0B1
:101A880009F01FEF1F93E2E8F4E000811127E00F4F
:101A9800F11F10811C3510E009F41FEF0F9110237E
:101AA80041F0E2E8F4E0108111501C3008F01CE02D
:101AB8001083CF93DF93E2E8F4E0FA93EA9365DDCD
:101AC800DF91CF91112309F462C01FEF1A933E8171
:101AD8002D811C810B813A932A931A930A93E9E08A
:101AE800F4E02B972BE030E0DE010E94135A10E15E
:101AF8001A9310E01A93FDDB6596109529F000E023
:101B080010E020E030E047C0CF93DF9300917504E8
:101B1800112701501040A0E2B0E0E89465F80E9457
:101B28007D5FF1E0E9E5E00FF11F74960191108106
:101B380033272227E0E10E94BF600F931F932F9362
:101B48003F9300917504112701501040E89465F8FF
:101B58000E947D5FF1E0E9E5E00FF11F7A960191BF
:101B6800108133272227FF91EF91BF91AF910A2B64
:101B78001B2B2E2B3F2B3A932A931A930A936BD83D
:101B8800DF91CF913D832C831B830A8392CF3D81C4
:101B98002C811B810A810895E881F9813596EF939C
:101BA800FF93E881F981B5960191108133272227A7
:101BB800E0E10E94BF60D8012F933F93E881F9814B
:101BC800BB960191108133272227FF91EF910A2BB1
:101BD8001B2B2E2B3F2BFF91EF91019311932193F8
:101BE8003083E881F9813196EF93FF93E881F98199
:101BF800359601911191219130813A932A931A9344
:101C08000A9329D82496FF91EF9101931193219378
:101C18003083E881F98131960191119121913081C8
:101C28003F3F29F42F3F19F41F3F09F40F3F10E0FD
:101C380009F01FEF08952197E981FA813196A08173
:101C4800B18182819381119608F40196A083B183B2
:101C580082839383E981FA813196019111912191CF
:101C68003081F901A0915C04B0915D0433272227EB
:101C7800A150B0402040304020953095B095A095B7
:101C8800A00FB11F2E1F3F1FF9010091B4041127A7
:101C9800332722270A231B232E233F23303029F4FE
:101CA800203019F4103009F4003009F054C0E981EB
:101CB800FA81359601911191219130813A932A93B5
:101CC8001A930A930E9479062496112311F010E0C2
:101CD80043C0E981FA813596EF93FF93E981FA8150
:101CE800359601911191219130813A932A931A9353
:101CF8000A930E94B1042496FF91EF9101931193E6
:101D080021933083E981FA813596019111912191CE
:101D180030813A932A931A930A930E94790624965B
:101D28001095C9F0E981FA813196EF93FF93E98123
:101D3800FA81359601911191219130813A932A9334
:101D48001A930A930E942F062496FF91EF9101930C
:101D58001193219330831FEF0895E881F9817C96D0
:101D6800008110E1011709F4B2C0CF93DF930E94FC
:101D78003F00DF91CF911FEF1A93E981FA81F19625
:101D880001911191219130813A932A931A930A93E0
:101D9800ED81FE8171962B972BE030E0DE010E94E9
:101DA800135A10E01A9310E11A93A3DA65961123D7
:101DB800C9F000917504112701501040A0E2B0E06D
:101DC800E89465F80E947D5FF1E0E9E5E00FF11F16
:101DD8003B9610811170113021F417E010935801CF
:101DE80076C0C3C0E881F981F196019111912191E2
:101DF80030813A932A931A930A9302D9249648DA9F
:101E0800112309F4B2C00091750411270150104044
:101E1800A0E2B0E0E89465F80E947D5FF1E0E9E5B2
:101E2800E00FF11F1081153009F0153E09F4B0C01C
:101E38005FD9109521F310917404112309F01FEF55
:101E4800112309F044C000917A0410917B04209179
:101E58007C0430917D043A932A931A930A930E9442
:101E68008D062496112399F500917A0410917B042C
:101E780020917C0430917D043A932A931A930A9313
:101E88000E9479062496112391F00E94F3042B9660
:101E980000937A0410937B0420937C0430937D0490
:101EA8001091AF04112309F01FEF112381F4009161
:101EB8007A0410917B0420917C0430917D043A933C
:101EC8002A931A930A93B3DB2996109511F010E020
:101ED80089C000917E0410917F0420918004309184
:101EE80081043A932A931A930A9300917A041091E1
:101EF8007B0420917C0430917D043A932A931A93B1
:101F08000A930E94D104289600917A0410917B04C8
:101F180020917C0430917D043A932A931A930A9372
:101F28000FEF1FEF2FEF3FEF3A932A931A930A937D
:101F38000E94D104289600917A0410917B04209184
:101F48007C0430917D043A932A931A930A930E9451
:101F58002F06249600937604109377042093780430
:101F68003093790411E01093750400917604109170
:101F7800770420917804309179043A932A931A933C
:101F88000A9309E511E01A930A930E9461002696C4
:101F980000917504112701501040A0E2B0E0E894C8
:101FA80065F80E947D5FB1E0A9E5A00FB11FE88147
:101FB800F981719620E230E00E94135A009176046C
:101FC8001091770420917804309179043A932A93F8
:101FD8001A930A9309E511E01A930A930E94810063
:101FE80026961FEF0895EA81FB81F59601911081ED
:101FF800103011F4003021F0103029F4013019F4B8
:102008000881198126C0103029F4023019F408819A
:10201800198111C0103029F4043019F4088119818C
:1020280008C0103059F4083049F408811981169510
:10203800079516950795169507950BC0A881B98140
:10204800EA81FB81F59601911081E89465F80E9478
:102058009E5F08952297EC81FD81F596019110818C
:10206800198308830A811B81103029F4003019F480
:1020780010E000E02AC0103029F4013019F408817A
:10208800198123C0103029F4023019F4088119810C
:1020980011C0103029F4043019F40881198108C0DE
:1020A800103059F4083049F408811981000F111FC4
:1020B800000F111F000F111F08C0A881B9810A81E4
:1020C8001B81E89465F80E947D5F0895229710E0CF
:1020D8001A9310E01A9300E010E020E030E03A9301
:1020E8002A931A930A930E94850026960093CA049D
:1020F8001093CB042093CC043093CD040F931F93FB
:102108002F933F930091670410916804209169040C
:1021180030916A04D801F9013F912F911F910F91D5
:102128003F1729F42E1719F41B1709F40A1708F09A
:1021380009F4B5C000E010E020E030E00093CA04E4
:102148001093CB042093CC043093CD040091560413
:102158001091570419830883009153041091540473
:10216800332722273A932A931A930A9391D72596CD
:10217800CF93DF930E94B518DF91CF911091590347
:10218800112309F01FEF1095A9F0E9E5F1E000E04F
:10219800A091CA04B091CB041081112319F41181C4
:1021A800112309F0119632960A95B1F7A093CA0443
:1021B800B093CB04A881B9811197A883B9830A2F5A
:1021C800B03009F40030A1F6CF93DF9393D7DF91B5
:1021D800CF91A0916704B0916804E0916904F091EF
:1021E8006A040091CA041091CB042091CC04309168
:1021F800CD04015010402040304020953095109576
:1022080000950A0F1B1F2E1F3F1F0E5F1F4F2F4FDA
:102218003F4F0093CA041093CB042093CC0430930F
:10222800CD040F931F932F933F9300916704109150
:1022380068042091690430916A04D801F9013F913A
:102248002F911F910F913F1729F42E1719F41B177F
:1022580009F40A1789F080F0009167041091680466
:102268002091690430916A040093CA041093CB0446
:102278002093CC043093CD0410E01A931FEF1A93E7
:102288000091CA041091CB042091CC043091CD0464
:102298003A932A931A930A930E94850026960091EE
:1022A800CA041091CB042091CC043091CD04089538
:1022B800229710E01A9310E01A9300E010E020E053
:1022C80030E03A932A931A930A930E94850026963F
:1022D8000093CA041093CB042093CC043093CD040C
:1022E8000F931F932F933F930091670410916804F5
:1022F8002091690430916A04D801F9013F912F9126
:102308001F910F913F1729F42E1719F41B1709F481
:102318000A1708F009F4C4C000E010E020E030E03B
:102328000093CA041093CB042093CC043093CD04BB
:10233800009156041091570419830883009153049F
:1023480010915404332722273A932A931A930A9315
:102358009FD62596CF93DF9304D7DF91CF91109125
:102368005903112309F01FEF109529F1E9E5F1E070
:1023780000E8A091CA04B091CB048091CC0490915C
:10238800CD041081112349F41181112331F41281F4
:10239800112319F41381112319F0119608F40196E9
:1023A80034960A9571F7A093CA04B093CB0480932E
:1023B800CC049093CD04A881B9811197A883B983DF
:1023C8000A2FB03009F4003029F6CF93DF9392D664
:1023D800DF91CF91A0916704B0916804E0916904FE
:1023E800F0916A040091CA041091CB042091CC04A6
:1023F8003091CD0401501040204030402095309558
:10240800109500950A0F1B1F2E1F3F1F0E5F1F4FB1
:102418002F4F3F4F0093CA041093CB042093CC0452
:102428003093CD040F931F932F933F93009167042C
:10243800109168042091690430916A04D801F90167
:102448003F912F911F910F913F1729F42E1719F4DF
:102458001B1709F40A1789F080F00091670410919E
:1024680068042091690430916A040093CA041093A7
:10247800CB042093CC043093CD0410E01A931FEFC3
:102488001A930091CA041091CB042091CC04309186
:10249800CD043A932A931A930A930E9485002696AC
:1024A8000091CA041091CB042091CC043091CD0442
:1024B8000895249710918F0412301FEF09F010E04F
:1024C80011F4F6DE01C002DE22963B832A831983CB
:1024D8000883E091B5040E94BF603695279517954B
:1024E8000795089522970E94A158088319831030F0
:1024F80009F4003009F461C0E881F98111E0108322
:10250800E881F981F196EF93FF93CF93DF93FE0172
:102518003F96FA93EA9346DADF91CF91FF91EF91D4
:102528000193119321933083E881F981F596009105
:1025380056011091570101931083E881F981F196B2
:102548000191119121913081303029F4203019F412
:10255800103009F4003009F429C0CF93DF9310E05C
:102568001A932D976F92FE01EF93FF933196FA938A
:10257800EA931CE01A9317EF61221FEB6122FE0118
:1025880073960E94315C1CE00881101BFF91EF914B
:10259800108323966F90EE85FF857196FA93EA93E0
:1025A8000E940807DF91CF91109549F008811981A1
:1025B8001A930A930E94C258229610E007C0EC8D25
:1025C800FD8D08811981019310831FEF08952497C9
:1025D800CF93DF932D976F92FE01EF93FF93319680
:1025E800FA93EA931CE01A9317EF61221FEB61221A
:1025F800FE01B2960E94315C0CE01881011BFF912C
:10260800EF91008323966F902D976F92FE01EF93C1
:10261800FF933196FA93EA931CE01A9317EF61221D
:102628001FEB6122FE01B2960E94315C1CE008811A
:10263800101BFF91EF91108323966F900E8D18E178
:10264800109510231A93EAE5F3E0FA93EA9308D079
:10265800DF91CF91109511F010E001C01FEF0895A0
:102668002497EC81FD81BD961E811083CF93DF9363
:10267800FE017496FA93EA9395D9DF91CF913B8343
:102688002A8319830883CF93DF931FEF1A932D971B
:102698006F92FE01EF93FF933196FA93EA931CE051
:1026A8001A9317EF61221FEB6122FE0178960E94B0
:1026B800315C1CE00881101BFF91EF911083239679
:1026C8006F90EA89FB89BE96FA93EA930E940807FD
:1026D800DF91CF91109509F094C01FEF1A933C81B8
:1026E8002B811A8109813A932A931A930A93E985CF
:1026F800FA85BE962B972BE030E0DE010E94135A34
:102708001E891A9310E01A930E947D096596112379
:1027180009F477C000917504112701501040A0E218
:10272800B0E0E89465F80E947D5FF1E0E9E5E00F2C
:10273800F11FEF93FF93EC81FD813D96DF01FF913F
:10274800EF9120E230E00E94135AEC81FD813D9622
:102758002B972BE030E0DE010E94135AEF85F889B1
:10276800FA93EA930E94A1062F96EC81FD81EF5A15
:10277800FF4F109175041083EC81FD81EE5AFF4FD5
:10278800009172041091730401931083EC81FD8110
:10279800E35BFF4F00917604109177042091780451
:1027A800309179040193119321933083EC81FD8159
:1027B800EC5AFF4F10917404112309F01FEF108396
:1027C800EC81FD81EF5BFF4F00917A0410917B044F
:1027D80020917C0430917D040193119321933083DF
:1027E800EC81FD81FD9600917E0410917F0420917B
:1027F80080043091810401931193219330831FEF5A
:1028080001C010E00895088119811A930A930E9463
:10281800D6582296109509F05FC0E881F981108199
:10282800113009F0123009F057C010E01093AE04CF
:10283800E881F9813596EF93FF93088119811A93FE
:102848000A930E94080A2296FF91EF91019311932F
:102858002193308310915801103009F03DC0109138
:10286800AE04112309F01FEF1123B1F1E881F981BA
:1028780035960191119121913081303029F4203021
:1028880019F4103009F40030F9F4088119811A9309
:102898000A93EA81FB817C9610811A93EB81FC8173
:1028A8007F96019110811A930A93ED81FE81B1966A
:1028B800019110811A930A9330D02F96109561F4E4
:1028C800E881F98111E01083088119811A930A932C
:1028D80063D92296109511F010E01EC0E881F981A5
:1028E800399610E000E001931083E881F9813D9664
:1028F80000E010E020E030E0019311932193308351
:10290800E881F9813B9610E000E001931083E881AB
:10291800F98112E010831FEF089528970D851E8511
:102928001A930A930E94D6582296109509F0B2C0BD
:10293800ED85FE851081113009F0ACC01C85107141
:10294800103109F4A7C01C851072103221F000E282
:102958001C85102B1C870D851E851A930A930E94CF
:10296800080A22963F832E831D830C8310915801F9
:10297800103009F08FC03F812E811D810C813030CD
:1029880029F4203019F4103009F4003099F190F14D
:1029980000917504112701501040A0E2B0E0E894BE
:1029A80065F80E947D5FF1E0E9E5E00FF11F3B96D5
:1029B80010811170113021F417E0109358016AC08A
:1029C800ED85FE85B5961F810E8101931083ED85F7
:1029D800FE85BB961D810C81019310833F812E815A
:1029E8001D810C813A932A931A930A930E94630AD1
:1029F8002D9610C00E94BE053B832A831983088345
:102A0800ED85FE85B59621933083ED85FE85BB96D1
:102A180001931083ED85FE85B596019110813327CA
:102A28002227E0E10E94BF60D8012F933F93ED85F4
:102A3800FE85BB960191108133272227FF91EF91E4
:102A48000A2B1B2B2E2B3F2B3F832E831D830C839E
:102A58003A932A931A930A930FEF1FEF2FEF3FE051
:102A68003A932A931A930A930E94D1042896ED85E3
:102A7800FE8535963F812E811D810C81019311932E
:102A8800219330830D851E851A930A9385D8229643
:102A9800109511F010E051C0ED85FE857C961C85DF
:102AA8001083ED85FE857F960A851B85019310832B
:102AB800ED85FE85B1960885198501931083ED850E
:102AC800FE85B7960A851B8501931083ED85FE85E3
:102AD800B9960885198501931083ED85FE85B3960F
:102AE8000885198501931083ED85FE85BD9600E064
:102AF80010E020E030E00193119321933083ED85BD
:102B0800FE8513E01083ED85FE85399610E000E020
:102B180001931083ED85FE853D9600E010E020E0EE
:102B280030E00193119321933083ED85FE853B9628
:102B380010E000E0019310831FEF08952297EA81C7
:102B4800FB810191108108831983EA81FB8110E0E0
:102B580000E001931083088119811A930A930E9457
:102B6800D6582296109569F5E881F98110811030C0
:102B780009F1113009F41EC0133011F0143019F5A1
:102B8800E881F981BD96EF93FF93E881F9813D963D
:102B98000191119121913081FF91EF91019311934E
:102BA80021933083088119811A930A93D6D82296E3
:102BB800109589F0088119811A930A930E94C258C6
:102BC800229610E010C0153031F4CF93DF930E94A5
:102BD8003F00DF91CF91088119811A930A930E94CF
:102BE800C25822961FEF0895088119811A930A93F3
:102BF8000E94D6582296109511F01FEF2AC0E8813E
:102C0800F9811081123011F010E023C0E881F981B8
:102C1800BD9601911191219130810F931F932F93AC
:102C28003F93E881F9813D9601911191219130817D
:102C3800D801F9013F912F911F910F913F1729F466
:102C48002E1719F41B1709F40A171FEF10F009F0D3
:102C580011270895229710E000E0EA81FB81019393
:102C68001083088519851A930A930E94D6582296CC
:102C7800109509F0E1C0088519851A930A930E8109
:102C88001F811A930A93E6D926961D830C83E8853B
:102C9800F9851081123009F0CFC0E885F9853D9695
:102CA80001911191219130810F931F932F933F939D
:102CB800E885F985BD960191119121913081D8015E
:102CC800F9013F912F911F910F913F1729F42E176A
:102CD80019F41B1709F40A1708F0AEC0E885F9853E
:102CE800BD96A191B191219130812F933F93E885B1
:102CF800F9853D9601911191219130810150104043
:102D0800204030402095309510950095FF91EF9127
:102D18000A0F1B1F2E1F3F1F0F931F932F933F93C5
:102D28000C811D8133272227D801F9013F912F916A
:102D38001F910F913F1729F42E1719F41B1709F447
:102D48000A1790F4E885F985BD96A191B081E885C8
:102D5800F9853D960191108101501040109500951C
:102D68000A0F1B1F1D830C830C811D81103009F471
:102D7800003009F4B3C0E885F985399601912091AE
:102D88005E0430915F041081131709F4021709F5E6
:102D9800E885F985399610E000E0019310830885ED
:102DA80019851A930A930E941F0E2396109589F08D
:102DB800088519851A930A93EC81FD810081118198
:102DC8001A930A9310D92496EA81FB810193108300
:102DD80033C0E885F985399601911081019509F488
:102DE8001A95109530915F0420915E04020F131F0D
:102DF8001983088398011D810C81131709F40217A0
:102E080020F40C811D8119830883E885F9853196A2
:102E180001911191219130813A932A931A930A933F
:102E280009E511E01A930A930E946100269610950D
:102E380029F015E01093580110E066C0E885F9857F
:102E4800399601911081F1E0E9E5E00FF11FEF9368
:102E5800FF93EE81FF8108811981DF01FF91EF91D6
:102E680098010E94135A1981B801AC81BD81A61B33
:102E7800B70BAC83BD83E885F9853D960881198138
:102E880033272227B801C90120813181A281B3816A
:102E9800260F371FA81FB91F20833183A283B3834E
:102EA800E885F985399668817981A081B181A60F75
:102EB800B71FA083B183EA81FB8168817981A081F2
:102EC800B181A60FB71FA083B18368817981AE81D4
:102ED800BF81A60FB71FAE83BF8346CF088519856C
:102EE8001A930A93EC81FD81008111811A930A9348
:102EF8007AD82496EA81FB810193108310915801B6
:102F0800103010E009F41FEF0895239712E00AE843
:102F18001A8309831FEF1A930E9401592196188377
:102F28001F3F11F41FEF0BC0A981BA811197A98324
:102F3800BA830A2FB03009F4003061F710E0089521
:102F480022971E8110781030A1F01E811F771E83F2
:102F580017E71A9300E010E020E030E03A932A9354
:102F68001A930A93EDDF27961983113011F008F0B0
:102F78004EC02C9A1FEF1A930E94015921962C9843
:102F8800C4DF23961E811A930E94015921961D8140
:102F98001A930E94015921961C811A930E94015983
:102FA80021961B811A930E94015921961A811A931E
:102FB8000E94015921961FEF18831E81103419F4BD
:102FC80015E9188305C01E81183411F417E8188311
:102FD80018811A930E94015921961AE018831FEF4D
:102FE8001A930E9401592196198318811A951883FA
:102FF80019811078103010E009F41FEF1F93188121
:1030080010301FEF09F011270F91102B41F3198190
:10301800089521970FEF1FEF2FEF3FEF009305045F
:1030280010930604209307043093080410916B044E
:10303800112309F01FEF109561F038852F811E814B
:103048000D81E9E00E94BF6038872F831E830D83BE
:103058000DC017ED1A933D812C811B810A813A938B
:103068002A931A930A936CDF2796188319E51A9303
:10307800398528851F810E813A932A931A930A93DA
:103088005FDF27961883103010E009F41FEF0895CA
:103098002197CF93DF930E943F00DF91CF9110914A
:1030A8006B04112309F01FEF109559F03C812B8117
:1030B8001A810981E9E00E94BF603C832B831A834F
:1030C800098323DF239612E51A933D812C811B8106
:1030D8000A813A932A931A930A9332DF2796188320
:1030E800103011F010E005C01881103010E009F41C
:1030F8001FEF08951CE41A9300E010E020E030E090
:103108003A932A931A930A931BDF27962C9A1FEF58
:103118001A930E94015921961FEF08950AEF1FEF95
:103128000E9401591F3F21F00A95C9F710E018C005
:103138001CEF0E94015980E092E011270E9401597A
:103148000197D9F71FEF0E9401591FEF0E940159FB
:103158001FEF0E9401591F71153010E009F41FEF8D
:103168000895002780E797E11FEF0E9401591E3F4D
:103178000000000021F00197B9F7112712C0E9E516
:10318800F1E080E092E01FEF0E9401591193012BBA
:103198000197C9F71FEF0E9401591FEF0E940159BB
:1031A8001FEF00950093590308952B9700E010E056
:1031B80020E030E000934F04109350042093510412
:1031C800309352040FEF1FEF2FEF3FEF00930504EA
:1031D80010930604209307043093080410E010931A
:1031E8006B042C9A18EC1987103041F01FEF1A93D2
:1031F8000E94FF58219619851A95F5CF14E619876C
:1032080010E01E831985103009F4E3C010E41A9306
:1032180000E010E020E030E03A932A931A930A93F2
:103228008FDE2796113009F0D0C010E0198719E019
:1032380004ECE5EAF4E0B1E00E94CF6018E41A93E8
:103248000AEA11E020E030E03A932A931A930A93AD
:1032580077DE2796113009F075C01FEF1A930E9488
:10326800FF5821961FEF1A930E94FF5821961FEFCF
:103278001A930E94FF5821961B831FEF1A930E94EE
:10328800FF5821961A831B81113010E009F41FEFB3
:103298001F931A811A3A10E009F41FEF0F911023B7
:1032A80009F48AC017E71A9300E010E020E030E044
:1032B8003A932A931A930A9343DE279619EE1A93A0
:1032C80000E010E020E030E43A932A931A930A933E
:1032D80037DE2796103019F0082D017019F71AE714
:1032E8001A9300E010E020E030E03A932A931A9312
:1032F8000A9326DE2796103009F51FEF1A930E94CD
:10330800FF5821961C831FEF1A930E94FF5821969D
:103318001FEF1A930E94FF5821961FEF1A930E94DD
:10332800FF5821961C811074103029F01FEF10935C
:103338006B0414E001C013E01E833EC0082D017029
:1033480071F63AC019EE1A9300E010E020E030E080
:103358003A932A931A930A93F3DD2796113008F0CB
:1033680021F412E01D8319EE03C011E01D8311E45E
:103378001F831D811E831F811A9300E010E020E047
:1033880030E03A932A931A930A93DADD279610309D
:1033980019F0082D017079F710E51A9300E012E092
:1033A80020E030E03A932A931A930A93C9DD2796CE
:1033B800103011F010E01E83082D017011F410E098
:1033C8001E831E81103029F41DCF19851A9519877F
:1033D80019CF2C9A1FEF1A930E94FF5821960E942A
:1033E800F5581FEF1A930E94015921961FEF1A935F
:1033F8000E94015921961E81103010E009F01FEF3C
:103408000895E9E5F1E08F01009390041093910489
:103418000895239710E000E01A8309831B81103078
:1034280001F110E018831B8111501A93198108814A
:103438000117B0F00A811B8103591E4F1B830A83B1
:10344800198104E00E946E5F003029F4AA81BB81D3
:103458001196AA83BB83198113951983112339F710
:1034680021961C81113009F100F111E018831C81AB
:1034780011501A93198108810117B0F0EFE5F5ECA6
:10348800098101501127E00FF11F049100230AF46C
:103498001FEF3B812A81020F131F1B830A831981A7
:1034A80013951983112339F721961C81123010E0E6
:1034B80011F008F01FEF1F931B8104E00E946E5F5C
:1034C800003010E009F41FEF0F91102329F0A981B3
:1034D800BA811196A983BA8329813A810D81015055
:1034E8001127020F131F1A8309830895F8941FE701
:1034F80061221091D4040E94AB591091D5040E9406
:1035080095591091D6040E949D591091D7040E9494
:10351800A55910E8612A7894089510914C011093E8
:10352800D00410914D011093D10410914E011093C5
:10353800D2040895F8941FE761221091D0040E94E4
:103548007A591091D1040E9489591091D2040E948D
:103558008F5910E8612A7894089521971091CE0424
:10356800112309F01FEF112309F44CC0E89477F8F0
:1035780048E610E0312FE89460F8A0E0B0E050E0B1
:103588000E94CD5718E6412FFE01A1E0B0E00E944D
:10359800BF5718810E945F61ED81FE811193E89405
:1035A80077F848E611E0312FE89460F8A0E0B0E041
:1035B80050E00E94CD5718E6412FFE01A1E0B0E08F
:1035C8000E94BF5718810E945F61EB81FC811193B3
:1035D800E89477F848E612E0312FE89460F8A0E024
:1035E800B0E050E00E94CD5718E6412FFE01A1E05F
:1035F800B0E00E94BF5718811F730E945F61E98184
:10360800FA811083089521971091CE04112309F0AF
:103618001FEF112309F465C0E89477F848E613E032
:10362800312FE89460F8A0E0B0E050E00E94CD5758
:1036380018E6412FFE01A1E0B0E00E94BF571881B3
:103648001770EF81F8851193E89477F848E614E04D
:10365800312FE89460F8A0E0B0E050E00E94CD5728
:1036680018E6412FFE01A1E0B0E00E94BF57188183
:103678001F730E945F61ED81FE811193E89477F8D2
:1036880048E615E0312FE89460F8A0E0B0E050E09B
:103698000E94CD5718E6412FFE01A1E0B0E00E943C
:1036A800BF5718811F710E945F61EB81FC811193E4
:1036B800E89477F848E616E0312FE89460F8A0E03F
:1036C800B0E050E00E94CD5718E6412FFE01A1E07E
:1036D800B0E00E94BF5718810E945F61E981FA81BA
:1036E8001083089521971091CE04112309F01FEF3C
:1036F8001123A1F11B810E9467611883E89477F870
:1037080048E610E0312FE89460F8FE01A1E0B0E04F
:1037180050E00E94CD571A810E9467611883E8948F
:1037280077F848E611E0312FE89460F8FE01A1E04F
:10373800B0E050E00E94CD5719810E9467611F7167
:103748001883E89477F848E612E0312FE89460F897
:10375800FE01A1E0B0E050E00E94CD570895219706
:103768001091CE04112309F01FEF112309F441C071
:10377800E89477F848E613E0312FE89460F8FE0102
:103788003496A1E0B0E050E00E94CD571B810E9422
:1037980067611883E89477F848E614E0312FE894D5
:1037A80060F8FE01A1E0B0E050E00E94CD571A8118
:1037B8000E9467611883E89477F848E615E0312F8E
:1037C800E89460F8FE01A1E0B0E050E00E94CD5717
:1037D80019810E9467611883E89477F848E616E033
:1037E800312FE89460F8FE01A1E0B0E050E00E94BB
:1037F800CD570895219718E60E94B6571093CE0426
:10380800112309F01FEF112309F45FC018E518838D
:10381800E89477F848E61EE0312FE89460F8FE0156
:10382800A1E0B0E050E00E94CD5710E001E00E9416
:10383800D359E0EDF4E0FA93EA93E1EDFA93EA93D1
:10384800E2EDFA93EA9389DE27961091D2041731B4
:1038580079F070F010E01093D2041091D0041A930C
:103868001091D1041A931091D2041A933BDF249635
:10387800CF93DF935FDEDF91CF91E4EDF4E0FA932D
:10388800EA93E5EDFA93EA93E6EDFA93EA93E7ED26
:10389800FA93EA93B8DE29961091D404163081F091
:1038A80078F010E01093D4041A931091D5041A9369
:1038B8001091D6041A931091D7041A9350DF2596C5
:1038C800CF93DF9313DEDF91CF910895E4E0F9E021
:1038D800EF93FF933196FA93EA931FE11A9317EF48
:1038E80061221FEB612210E30E94115F0FE1188132
:1038F800011B102FFF91EF9100832396ECE0F0E07D
:103908000E94415A102F00932E09EAE0F0E00E942D
:10391800415A00932F0914E01093300908951DE0CF
:103928000E9419581AE00E9419580895259710E620
:103938000E94B65710930309112309F01FEF1123B2
:1039480009F444C0CF93DF9318E0612A09E118E530
:103958001A930A93E9E3F3EC0E94295CDF91CF9173
:103968001DE00E9419581AE00E94195810E61C839D
:1039780005E515E525E535E53B832A8319830883A5
:10398800E89477F84C8116E1312FE89460F8FE014D
:10399800A4E0B0E050E00E94CD5710E004E60E9499
:1039A800D35900E010E020E030E03B832A831983FC
:1039B8000883E89477F84C8116E1312FE89460F891
:1039C800FE01A4E0B0E050E00E94CD57089523978F
:1039D80010910309112309F01FEF112361F140E64B
:1039E8004A83E89477F810E0312FE89460F8A0E073
:1039F800B0E050E00E94CD571A81412FFE01A1E0AE
:103A0800B0E00E94BF57E89477F84A8111E0312F5F
:103A1800E89460F8A0E0B0E00E94CD571A81412FE9
:103A2800FE013196A1E0B0E00E94BF5708811981DC
:103A38000095109502C010E000E000934309109330
:103A48004409103009F4003010E009F01FEF089520
:103A580010E00AE00E94D359BADF23961095C1F30B
:103A680008951CE51CBD11E01DBD08951091550970
:103A780008E0449817FD449A459A110F45980A950D
:103A8800C1F70895FF24E6E5F9E008B145981081EB
:103A980017FB04F908B9459A16FB04F908B9459AC1
:103AA80015FB04F908B9459A14FB04F908B9459AB5
:103AB80013FB04F908B9459A12FB04F908B9459AA9
:103AC80011FB04F908B9459A10FB04F908B9459A9D
:103AD80031964598F394D9F60895109150092B988A
:103AE8001EBD1DB517FFFDCF1EB5109352091091CD
:103AF8004F091EBD1DB517FFFDCF1EB51093510907
:103B08002B9A089510914A092B981EBD1DB517FFD1
:103B1800FDCF1EB510934E09109149091EBD1DB564
:103B280017FFFDCF1EB510934D09109148091EBD12
:103B38001DB517FFFDCF1EB510934C09109147090D
:103B48001EBD1DB517FFFDCF1EB510934B092B9A4F
:103B580008952998109145091EBD1DB517FFFDCF81
:103B6800299A089508811127009345091093460959
:103B7800CF93DF93EEDFDF91CF91CF93DF93C2DF57
:103B8800DF91CF9100914B0910914C0920914D097B
:103B980030914E0908950881112700934509109323
:103BA8004609CF93DF93D5DFDF91CF9110E01093D3
:103BB8005009198110934F09CF93DF938EDFDF915E
:103BC800CF9108950881112700934509109346095C
:103BD800CF93DF93BEDFDF91CF913C812B811A8198
:103BE80009810093470910934809209349093093A4
:103BF8004A09CF93DF9386DFDF91CF9108951BE0C9
:103C08001A9310E000E01A930A9310E000E01A9368
:103C18000A9305D1259618811A93DED1219619E0C9
:103C28001A9314E000E01A930A9300E01A930A9397
:103C3800F6D0259616E01A9310E000E01A930A933E
:103C480010E000E01A930A93EAD0259618E01A9338
:103C580010E000E01A930A9310E000E01A930A9328
:103C6800DED0259617E01A9310E000E01A930A9325
:103C780010E000E01A930A93D2D0259611E11A9326
:103C880010E00CE01A930A9310E000E01A930A93EC
:103C9800C6D025960895E8E4F0E00E94385A1093BB
:103CA800560A31960E94385A1093570AEAE4F0E00F
:103CB8000E94385A1093580AEBE40E94385A10931D
:103CC800590AE0E40E94385A103010E009F01FEF5A
:103CD8001093C708E4E4F0E00E94415A0093CA0830
:103CE8001093CB081091C708112309F01FEF112377
:103CF80029F018E01A9310E003E004C018E01A93C2
:103D080010E001E01A930A930CD023961CE01A9352
:103D18000091CA081091CB081A930A9302D02396EF
:103D2800089510E001E8009345091093460911DF52
:103D3800088119810F7F1F7017FF02C02FEF01C084
:103D480022270093470910934809209349091A81AB
:103D5800110F110F110F110F10934A09D3DE10E044
:103D680000E80093450910934609F3DE089510E032
:103D78001A9309811A811A930A93D3DF239610E0C4
:103D880000E80093450910934609E3DE089510E022
:103D98001A93E8DE219610E000E800934509109395
:103DA8004609D7DE00914B0910914C090F7F177017
:103DB800089511E01A9309811A811A930A93B1DFC1
:103DC8002396089517E01A9310E000E01A930A93D7
:103DD800A8DF23960895088119811A930A93C7DFEB
:103DE80022960881198100939A0A10939B0A0895D4
:103DF8003B812A811981088100934709109348095A
:103E08002093490930934A097DDEA0919A0AB0911E
:103E18009B0A1196A0939A0AB0939B0A08950A8167
:103E28001B810F7F1F700093470910934809188161
:103E380009811F7F0F70109349091C81107F102B77
:103E480010934A09009148091C81110F110F110F95
:103E5800110F102B1093480955DEA0919A0AB091C2
:103E68009B0A1196A0939A0AB0939B0A08952997E2
:103E780014E018830E851F85A0E81A27103809F466
:103E8800003A20F0FE011881139518830E851F85CE
:103E9800A0E81A27113809F4003420F0FE0118812F
:103EA800139518830E851F85A0E81A27123809F480
:103EB800003820F0FE01188113951883288110E03E
:103EC80001E00E94B3601A8309831A930A9312E0EF
:103ED80004E71A930A9310E004E61A930A931FEF73
:103EE8000E94C15926960E5F1F4F18870F830C85B5
:103EF8001D851A930A9309851A851A930A9311E066
:103F080008E61A930A931FEF0E94C15926961E834A
:103F18000D830A851B851A930A9309851A851A93B6
:103F28000A9311E008E61A930A931FEF0E94C159F9
:103F380026961C830B8310E11A930A8511271A937E
:103F48000A9310E000E01A930A9369DF259610E0BF
:103F58001A930B891C891A930A930B891C891A9343
:103F68000A935DDF259614E01A930E811F811A9338
:103F78000A930E811F811A930A9351DF259615E043
:103F88001A930F8518891A930A930B8111271A938C
:103F98000A9345DF2596089522970A811B811A9373
:103FA8000A9313E003E21A930A9311E008E61A93BE
:103FB8000A931FEF0E94C15926961983088318E0B7
:103FC8001A9309811A811A930A9310E000E01A9350
:103FD8000A9325DF2596089510E11A930981112780
:103FE8001A930A9310E000E01A930A9318DF2596B3
:103FF8000895CF93DF9316E01A930A8111270023BF
:104008000AF41FEFA0E1B0E0689465F80E947D5FB4
:104018001A930A930B81112700230AF41FEFA0E1DA
:10402800B0E0689465F80E947D5F1A930A93F7DE02
:10403800DF91CF910895CF93DF9317E01A930A8108
:10404800112700230AF41FEFA0E1B0E0689465F897
:104058000E947D5F1A930A930B81112700230AF4AB
:104068001FEFA0E1B0E0689465F80E947D5F1A93A5
:104078000A93D5DEDF91CF910895CF93DF9310E0B7
:104088001A930A81112700230AF41FEFA0E1B0E078
:10409800689465F80E947D5F1A930A930B81112733
:1040A80000230AF41FEFA0E1B0E0689465F80E94CD
:1040B8007D5F1A930A93B3DEDF91CF91089510E1E3
:1040C8001A93098111271A930A9310E000E01A93B2
:1040D8000A93A5DE2596CF93DF9312E01A930B81FE
:1040E800112700230AF41FEFA0E1B0E0689465F8F7
:1040F8000E947D5F1A930A930C81112700230AF40A
:104108001FEFA0E1B0E0689465F80E947D5F1A9304
:104118000A9385DEDF91CF9108951A811A931A8147
:104128001A93ABDF229610E11A93098111271A938B
:104138000A9310E000E01A930A9371DE259613E0C3
:104148001A931FEF0BEF1A930A931FEF1A930A9310
:1041580066DE259613E01A931FEF0BEF1A930A9366
:1041680010E005E01A930A935ADE259613E01A9395
:1041780010E005E01A930A9310E01A930A934FDEB1
:10418800259613E01A931FEF0BEF1A930A9310E08A
:1041980005E01A930A9343DE259613E01A931FEF5E
:1041A8000BEF1A930A931FEF1A930A9338DE25969A
:1041B800089510E11A930A8111271A930A9310E0BF
:1041C80000E01A930A932BDE259612E11A930D81CB
:1041D8001E811A930A930D811E811A930A931FDE7A
:1041E80025961AE01A93098111271A930A9310E069
:1041F80000E01A930A9313DE2596089510E11A93A6
:10420800098111271A930A9310E000E01A930A9380
:1042180006DE2596CF93DF9312E11A930B811127BF
:1042280000230AF41FEFA0E1B0E0689465F80E944B
:104238007D5F1A930A930C81112700230AF41FEF5C
:10424800A0E1B0E0689465F80E947D5F1A930A9334
:10425800E6DDDF91CF911AE01A9310E004E11A939A
:104268000A9310E000E01A930A93D9DD2596089581
:10427800CF93DF930F81112700230AF41FEFA0E1EA
:10428800B0E0689465F80E947D5F1A930A930885E8
:10429800112700230AF41FEFA0E1B0E0689465F845
:1042A8000E947D5F1A930A930985112700230AF457
:1042B8001FEFA0E1B0E0689465F80E947D5F1A9353
:1042C8000A9309851A851A930A9309851A851A93F8
:1042D8000A931A851A93CBDDDF91CF9108956B97D6
:1042E8000B8D1127A0E1B0E0689465F80E947D5F0E
:1042F8001B830A83CF93DF9300915B0A1127002366
:104308000AF41FEF1A930A930C811D811A930A93DA
:1043180010E004E61A930A931FEF0E94C159DF9137
:10432800CF911F8B0E8B10915A0A20E81227103854
:1043380069F411E01A930F89188D1A930A9310E003
:1043480000E01A930A936BDD2596E3C010E000E0C5
:104358001B8B0A8B10E000E0198B088B10E000E043
:104368001F870E8710E000E01D870C8710E000E033
:104378001F830E8310E000E01D830C831FEF18835A
:1043880010E0188F0AE51AE01D8B0C8B0E851F852F
:104398001B870A870C851D8519870887EC89FD8985
:1043A8001191FD8BEC8B1A8F1191FD8BEC8B198F72
:1043B800FE017896188D1395188F1A8D20E812270C
:1043C800103010E009F41FEF012F1881102B19830A
:1043D800112379F0EC89FD891191FD8BEC8B1A8FF3
:1043E8001191FD8BEC8B198FFE017896188D139522
:1043F800188FCF93DF930A8D112700230AF41FEF3C
:104408001A930A930C811D811A930A9310E004E60B
:104418001A930A931FEF0E94C159DF91CF911F870A
:104428000E87CF93DF93098D112700230AF41FEF1E
:104438001A930A930C811D811A930A9310E004E6DB
:104448001A930A931FEF0E94C159DF91CF911D87DC
:104458000C870A851B85019509F41A9510953F85E7
:104468002E85020F131F1B8B0A8B08851985019552
:1044780009F41A9510953D852C85020F131F198B89
:10448800088B2E813F810A891B89020F131F1F8306
:104498000E832C813D8108891989020F131F1D8302
:1044A8000C831981112311F011E001C013E01A9354
:1044B8000B891C891A930A930B891C891A930A93EE
:1044C800AEDC259610E01883088D10915A0A20E872
:1044D80012270227011709F008F458CFCF93DF936A
:1044E80011E01A930F811885019509F41A95109512
:1044F800388D2F89020F131F1A930A930F8118857D
:10450800019509F41A9510951A930A9388DCDF919E
:10451800CF9108952297EB81FC81059111270F73A4
:104528001070000F111F0E5F1F4F19830883AAE533
:10453800BAE0FC81EB8198010E9481611A811A938B
:10454800CEDE6C96089524971D81103230F10D81CE
:1045580000520B831127A0E4B0E0E89465F80E94AC
:104568007D5F1983088323E336ECF12F020FF31FD5
:10457800AAE5BAE0E02F20E430E00E948161E885F6
:10458800F98510811A93EF81F88510811A9375DDEA
:1045980022961C811A93A3DE6C96089524971D8198
:1045A8001032E0F00D8100520B831127A0E4B0E037
:1045B800E89465F80E947D5F1983088323E336EC4D
:1045C800F12F020FF31FAAE5BAE0E02F20E430E054
:1045D8000E9481611C811A9382DE6C96089521974E
:1045E8001B891A931B891A9348DD229611E01883B8
:1045F8001A811A9319810881011788F0FE013396F0
:1046080009811127E00FF11F10811A931B811A935A
:10461800C5DF2696198113951983112361F7219611
:1046280008950E94D9182B96112341F0CF93DF9358
:104638000E948601DF91CF911FEF01C010E0109317
:104648003E09089524970E9412581095E1F35A984C
:1046580010E000E0198308831E811A9311E81A9369
:104668009ADA229610E000E800934509109346096B
:1046780070DA0E9412581123E1F30E94F557109343
:104688004F090E94F5571093500927DAA881B9817C
:104698001296A883B9832C813D818D01A0E81A2741
:1046A8003A27131709F4021720F31E811A9311E809
:1046B8001A9371DA22965A9A0E9412581095E1F3C9
:1046C800089526970E9412581095E1F310E01D8373
:1046D800109127091A7F1093270910E01C83469828
:1046E80011E00E94E259469A1AE00E94E25937996D
:1046F800FECF5A9800E010E020E030E03B832A83A8
:10470800198308830E9412581123E1F30E94F55778
:1047180010935509ABD9FE01A881B9818A819B8183
:10472800119608F40196A083B18382839383398517
:104738002885BF81AE81F9013B812A8119810881D1
:1047480040E8F42734273F1729F42E1719F41B17CC
:1047580009F40A17B9F61FEF1093550987D95A9A21
:104768000895259710E01B83109127091A7F10934D
:10477800270910E01A8310913E09112309F01FEF51
:10478800112309F4DCC0CF93DF932D976F92FE01BC
:10479800EF93FF933196FA93EA931CE01A9317EF7D
:1047A80061221FEB61221CE50E94115F0CE0188159
:1047B800011BFF91EF91008323966F902D976F92C5
:1047C800FE01EF93FF933196FA93EA931CE01A9354
:1047D80017EF61221FEB6122FE01B2960E94315C45
:1047E8000CE01881011BFF91EF91008323966F90D5
:1047F80017E21A930E94EB12DF91CF91112309F46B
:1048080099C0CF93DF93EFE3F9E0FA93EA932D97FA
:104818006F92FE01EF93FF933196FA93EA931CE0AF
:104828001A9317EF61221FEB61220CE01881011B1C
:10483800FF91EF91008323966F902D976F92FE0161
:10484800EF93FF933196FA93EA931CE01A9317EFCC
:1048580061221FEB6122FE01B4960E94315C1CE0CC
:104868000881101BFF91EF91108323966F9010E041
:1048780001E000935601109357010E947612DF91D0
:10488800CF9100913F09109140091A930A930E9411
:10489800071422961FEF1C8300913F0910914009CD
:1048A8001A930A930E94F8152296109551F10091D7
:1048B8003F09109140091A930A9306E519E01A93E3
:1048C8000A9311E000E01A930A93FE013696FA93D0
:1048D800EA930E942E162A961C81112379F0469895
:1048E80011E00E94E259469A10E00AE00E94D3596A
:1048F80010E01C83379902C01FEF1B83C3D8379B76
:10490800CBCF1FEF1A831FEF10935509AFD8EFE3F2
:10491800F9E0FA93EA930E94A21524960B81009578
:10492800112737991FEF1095102B49F0109127097F
:10493800146003C0109127091160109327091A8188
:10494800112359F0CF93DF9318E0612A09E118E5A4
:104958001A930A93E0E5F3EC0AC0CF93DF9318E0CB
:10496800612A09E118E51A930A93EFE5F3EC0E942E
:10497800295CDF91CF910E94931C1A8108952E978C
:104988001091270911601093270910E01093C308AC
:10499800A3E5B5E0E9E4F3E00000319711F01D93D9
:1049A800FCCF0E851F8500934F051093500510E02E
:1049B800188310913E09112309F01FEF112309F400
:1049C80020C2CF93DF932D976F92FE01EF93FF9351
:1049D8003196FA93EA931CE01A9317EF61221FEBC2
:1049E80061221CE50E94115F0CE01881011BFF91F8
:1049F800EF91008323966F902D976F92FE01EF93AE
:104A0800FF933196FA93EA931CE01A9317EF612209
:104A18001FEB6122FE01BD960E94315C0CE01881FB
:104A2800011BFF91EF91008323966F9017E21A9371
:104A38000E94EB12DF91CF91112309F4BFC1C2D9B3
:104A48000E851F851A930A93C6D922960E851F854F
:104A58001D830C83109127091E7F10932709CF937C
:104A6800DF93EFE3F9E0FA93EA932D976F92FE0153
:104A7800EF93FF933196FA93EA931CE01A9317EF9A
:104A880061221FEB61220CE01881011BFF91EF915D
:104A9800008323966F902D976F92FE01EF93FF93FB
:104AA8003196FA93EA931CE01A9317EF61221FEBF1
:104AB8006122FE01BF960E94315C1CE00881101B38
:104AC800FF91EF91108323966F9010E001E000931F
:104AD8005601109357010E947612DF91CF910091F1
:104AE8003F09109140091A930A930E9407142296CD
:104AF80000913F09109140091A930A930E94F815F2
:104B08002296109509F424C100913F09109140099B
:104B18001A930A9306E519E01A930A9311E000E044
:104B28001A930A93FE013C96FA93EA930E942E1672
:104B38002A9610E000E0198708870E811F81D801A6
:104B480024E030E0E89465F80E949F5F015010402F
:104B58001A930A93AA85BB8528813981B31709F46A
:104B6800A21709F020F6E6E5F9E00A851B85000F93
:104B7800111F000F111FE00FF11F019111912191D9
:104B880030810093470910934809209349093093CD
:104B98004A090070107F2070307F3F872E871D875D
:104BA8000C87303129F4203019F4103309F400301F
:104BB80010E009F41FEF1C833F852E851D850C85A9
:104BC800303029F4203019F4103B09F4003010E09B
:104BD80009F41FEF1D833F852E851D850C85303117
:104BE80029F4203019F4103009F4003010E009F4E9
:104BF8001FEF1B83012F1A8110231F931091C308E5
:104C0800103010E009F01FEF0F911023A1F0009170
:104C1800C30801501127A5E1B0E0E89465F80E94A7
:104C28007D5FF5E0E3E5E00FF11F3296109147094B
:104C3800108310E01A830C811D81102B09F476C0B3
:104C48000091C3081127A5E1B0E0E89465F80E9437
:104C58007D5FF5E0E3E5E00FF11F00914709109152
:104C680048090F7F1F70019310830091C308112713
:104C7800B0E0E89465F80E947D5FF5E0E3E5E00FB9
:104C8800F11F3396EF93009147091091480920913D
:104C9800490930914A09E0E10E94A360EF9100833D
:104CA8000091C3081127B0E0E89465F80E947D5F81
:104CB800F5E0E3E5E00FF11F73960E811F81019384
:104CC80010830091C3081127B0E0E89465F80E94AA
:104CD8007D5FF5E0E3E5E00FF11F389614E000E0B2
:104CE800019310830091C3081127B0E0E89465F898
:104CF8000E947D5FF5E0E3E5E00FF11F3A9614E0CE
:104D080000E00193108300E010EB20E030E0009316
:104D18004709109348092093490930934A0910918B
:104D2800C30813951093C3081FEF1A830E94861DAA
:104D3800AE81BF811196AE83BF83AA85BB851196CC
:104D4800AA87BB87BB2311F4AA2309F005CFCFCECE
:104D5800EFE3F9E0FA93EA930E94A2152496CF9321
:104D6800DF9318E0612A09E118E51A930A93E7E747
:104D7800F3EC0E94295CFE0172960E94315CE2E825
:104D8800F3EC0E94295CDF91CF9118E0612A09E1D8
:104D980018E51A930A931091C308CF93DF931A93D7
:104DA80010E01A9310E01A9310E21A93689463F8CB
:104DB8000E94455CDF91CF91229616C0CF93DF9376
:104DC80018E0612A09E118E51A930A93EFE8F3EC71
:104DD8000E94295CFE0172960E94315CEDE9F3ECB9
:104DE8000E94295CDF91CF910E94931C0C811D8148
:104DF80000935105109352051A930A930E94EF1ECF
:104E0800229600912709112700FD1FEF109508959C
:104E18006297FE013596EF93FF933196FA93EA93E2
:104E28001CE01A9317EF61221FEB6122FE017596B1
:104E38000E94085C0CE01881011BFF91EF91008330
:104E48002396FE013196EF93FF933196FA93EA93F6
:104E580013E01A9317EF61221FEB6122FE013896C7
:104E680060E00E94D65B13E00881101BFF91EF9170
:104E7800108323965A98CF93DF9318E0612A09E1AB
:104E880018E51A930A93EAEAF3EC0E94295CFE01FA
:104E980037960E94315CE6EBF3EC0E94295CDF91C7
:104EA800CF910E94931C10E01883FE013196DF0118
:104EB800EBEBF3EC689464F80E94CA5E10E009F426
:104EC8001FEF1F93FE013196DF01EFEBF3EC6894BF
:104ED80064F80E94CA5E10E009F41FEF0F91102BCE
:104EE80009F45CC0CF93DF932D976F92FE01EF9387
:104EF800FF933196FA93EA931CE01A9317EF612215
:104F08001FEB6122FE0175960E94315C0CE018814E
:104F1800011B102FFF91EF91008323966F9021DCE6
:104F2800DF91CF911883FE013596DF01E3ECF3ECB6
:104F3800689464F80E94CA5E89F50E944F1E0E9418
:104F4800351D0E94E61E1091C708112309F01FEFB6
:104F5800112329F018E01A9310E003E004C018E0C8
:104F68001A9310E001E01A930A930E94951E239663
:104F7800CF93DF9318E0612A09E118E51A930A93A1
:104F8800EFECF3EC0E94295CDF91CF910E94931C17
:104F980011E01093E20410E0109341091091E2042B
:104FA800113010E009F41FEF1F93FE013196DF0165
:104FB800E4EEF3EC689464F80E94CA5E10E009F429
:104FC8001FEF0F91102309F458C0E0E4F0E00E94AD
:104FD800385A103010E009F01FEF1093C70811235A
:104FE80009F01FEF112329F018E01A9310E003E0ED
:104FF80004C018E01A9310E001E01A930A930E9483
:10500800951E2396CF93DF932D976F92FE01EF9312
:10501800FF933196FA93EA931CE01A9317EF6122F3
:105028001FEB6122FE0175960E94315C1CE008812D
:10503800101BFF91EF91108323966F9010E000E012
:105048001A930A939CDCDF91CF9118831CE01A9382
:1050580010E000E01A930A9310E000E01A930A9314
:105068000E94131F259610E000E01A930A930E94ED
:10507800DD1E229619E01093410918810895E5EC88
:10508800F8E0FA93EA9310E0108313E11A93108181
:105098000881011708F491C0CF93DF932D976F9281
:1050A800FE01EF93FF933196FA93EA931CE01A936B
:1050B80017EF61221FEB6122E8EEF3EC0E94295CF6
:1050C8001091C508CF93DF931A9310E01A9310E05C
:1050D8001A9310E21A930E94455CDF91CF91EEEE8D
:1050E800F3EC0E94295C1CE00881101BFF91EF91F2
:1050F800108323966F9010E000E01A930A933FDC28
:10510800DF91CF91109509F058C01091590A1A9360
:105118000E94F01F2196CF93DF931CE91A931A93EC
:1051280060976F92FE01EF93FF933196FA93EA939B
:105138001FE01A9317EF61221FEB61221CE40E9403
:10514800115F1091C508CF93DF931A9310E01A935B
:1051580010E01A9310E21A930E94455CDF91CF91F8
:105168001FE00881101BFF91EF91108323966F9029
:1051780014E61A9334DADF91CF911CE01A9310E009
:1051880000E01A930A9310E000E01A930A930E9431
:10519800131F259610E000E01A930A930E94DD1E63
:1051A800229611E004EF0E94D359E981FA81108117
:1051B80013951083112309F06BCF2396E6ECF8E0E2
:1051C800FA93EA9310E0108313E11A93108108818F
:1051D800011708F491C0CF93DF932D976F92FE01CA
:1051E800EF93FF933196FA93EA931CE01A9317EF23
:1051F80061221FEB6122E3EFF3EC0E94295C10911E
:10520800C608CF93DF931A9310E01A9310E01A930D
:1052180010E21A930E94455CDF91CF91EEEEF3EC19
:105228000E94295C1CE00881101BFF91EF911083FC
:1052380023966F9010E000E01A930A93A0DBDF91A9
:10524800CF91109509F058C01091590A1A930E94ED
:10525800F01F2196CF93DF931CE91A931A93609756
:105268006F92FE01EF93FF933196FA93EA931FE052
:105278001A9317EF61221FEB612211E40E94115F5C
:105288001091C608CF93DF931A9310E01A9310E099
:105298001A9310E21A930E94455CDF91CF911FE0A8
:1052A8000881101BFF91EF91108323966F9014E6ED
:1052B8001A9395D9DF91CF911CE01A9310E000E082
:1052C8001A930A9310E000E01A930A930E94131F9E
:1052D800259610E000E01A930A930E94DD1E22969C
:1052E80011E004EF0E94D359E981FA8110811395E6
:1052F8001083112309F06BCF2396CF93DF932D975B
:105308006F92FE01EF93FF933196FA93EA931CE0B4
:105318001A9317EF61221FEB6122E9EFF3EC0E9469
:10532800295C1CE00881101BFF91EF9110832396E4
:105338006F9010E000E01A930A9321DBDF91CF9180
:105348001091590A1A930E94F01F2196CF93DF9368
:105358001CE91A931A9360976F92FE01EF93FF93DB
:105368003196FA93EA931FE01A9317EF61221FEB25
:105378006122E4E0F4EC0E94295C1FE00881101B24
:10538800FF91EF91108323966F901BE41A9327D90E
:10539800DF91CF911CE01A9310E000E01A930A9372
:1053A80010E000E01A930A930E94131F259610E05C
:1053B80000E01A930A930E94DD1E229611E004EF82
:1053C8000E94D35910E01093C5081093C608109393
:1053D80041090895CF93DF932D976F92FE01EF93C4
:1053E800FF933196FA93EA931CE01A9317EF612220
:1053F8001FEB6122EBE0F4EC0E94295C1CE00881C1
:10540800101BFF91EF91108323966F9010E000E03E
:105418001A930A93B4DADF91CF911091590A1A932B
:105428000E94F01F2196CF93DF931CE91A931A93D9
:1054380060976F92FE01EF93FF933196FA93EA9388
:105448001FE01A9317EF61221FEB6122E4E1F4ECED
:105458000E94295C1FE00881101BFF91EF911083C7
:1054680023966F901BE41A93BAD8DF91CF911CE072
:105478001A9310E000E01A930A9310E000E01A93E0
:105488000A930E94131F259610E000E01A930A93CE
:105498000E94DD1E229611E004EF0E94D35910E00D
:1054A8001093C50819E010934109089513E20E946A
:1054B80019580895CF93DF9318E0612A09E118E598
:1054C8001A930A93E1EEF8E00E94315CDF91CF91E4
:1054D8000E94931C0895229710E00FEF0093D508BF
:1054E8001093D608CF93DF93E1DFDF91CF9110912E
:1054F80027091030E89409F068940091260905F905
:105508000093260905FF07C0009126091091270975
:10551800102B188311C0009126091A81102B1883AB
:105528001A81103049F0A0912809B09129091196E3
:10553800A0932809B093290918E0612A09E118E520
:105548001A930A931A81CF93DF931A9310E01A9350
:1055580010E01A9310E21A93689463F80E94455C6D
:10556800DF91CF9122960091260905FF39C010914D
:1055780027091983EBE0F0E0FA93EA9310E010832F
:1055880013E01A9310810881011748F11C811170EA
:105598001130D9F410E20E941958CF93DF9318E024
:1055A800612A09E118E51A930A930B2D1127ABE03C
:1055B800B0E0E89465F80E947D5FF5ECE3EBE00F5E
:1055C800F11F0E94295CDF91CF911C8116951C83E5
:1055D800E981FA811081139510831123A1F623968E
:1055E80010E20E941958CF93DF9318E0612A09E16D
:1055F80018E51A930A930C811127A9E0B0E0E89402
:1056080065F80E947D5FF5ECEBE6E00FF11F0E9464
:10561800295CDF91CF910E94931C0895E4E0F9E0A2
:10562800EF93FF933196FA93EA931FE11A9317EFDA
:1056380061221FEB61220091DC081091DD082091A6
:10564800DE083091DF08CF93DF933A932A931A93B9
:105658000A9310E01A9310E01A9310E21A936894D0
:1056680065F8E89474F875F862F80E94855CDF9133
:10567800CF911FE10881101BFF91EF9110832396B2
:105688000895CF93DF9312DFDF91CF91CF93DF930C
:1056980018E0612A09E118E51A930A93E4E0F9E0B1
:1056A8000E94315CDF91CF910E94931C0895E4E041
:1056B800F9E0EF93FF933196FA93EA931FE11A9377
:1056C80017EF61221FEB61220091D9081091DA08C7
:1056D800CF93DF931A930A9310E01A9310E01A936A
:1056E80010E21A93689465F8E89474F875F80E94C3
:1056F800745EDF91CF911FE10881101BFF91EF913C
:1057080010832396CF93DF93BCDFDF91CF91089569
:10571800E4E0F9E0EF93FF933196FA93EA931FE1FF
:105728001A9317EF61221FEB61221091E008CF93C3
:10573800DF931A9310E01A9310E01A9310E21A9369
:105748000E94455CDF91CF911FE10881101BFF91FA
:10575800EF9110832396CF93DF9393DFDF91CF915F
:105768000895CF93DF93A2DEDF91CF91CF93DF939C
:1057780055DFDF91CF91CF93DF9318E0612A09E1DC
:1057880018E51A930A93E4E0F9E00E94315CDF918E
:10579800CF9110E20E9419581BE50E94195814E293
:1057A8000E941958E4E0F9E0EF93FF933196FA93D9
:1057B800EA931FE11A9317EF61221FEB6122009110
:1057C800DC081091DD082091DE083091DF08B8016F
:1057D800C901492F0E94055F482F0E94055F472F86
:1057E8000E94055F462F0E94055F1FE10881101B7C
:1057F800FF91EF9110832396CF93DF9318E0612AEE
:1058080009E118E51A930A93E4E0F9E00E94315C93
:10581800DF91CF911DE50E9419580E94931C0895AD
:10582800E4E0F9E0EF93FF933196FA93EA931FE1EE
:105838001A9317EF61221FEB61220091DC08109187
:10584800DD082091DE083091DF08CF93DF933A938B
:105858002A931A930A9310E01A9310E01A9310E20D
:105868001A93689465F8E89474F875F862F80E94D9
:10587800855CDF91CF911FE10881101BFF91EF91AB
:1058880010832396CF93DF93FCDEDF91CF910895A9
:105898002497A091D508B091D6082AE030E0689402
:1058A80065F80E949F5F8F01507809F00195088381
:1058B8000091D5081091D608689462F8A0E0B0E08D
:1058C8005FEF0E9451615523D2F4A3E0B0E0552761
:1058D8000E94516155239AF00091D508102F0A9320
:1058E8000E94B61D21960093DC081093DD082093D2
:1058F800DE083093DF08CF93DF9333DFC5C16894A8
:1059080062F8A4E0B0E05FEF0E9451615523D2F441
:10591800AFE4B0E055270E94516155239AF00091F9
:10592800D508102F0A930E94B61D21960093DC0813
:105938001093DD082093DE083093DF08CF93DF93C0
:105948006FDFA2C1689462F8A4E6B0E05FEF0E943E
:1059580051615523AAF4A6E6B0E055270E9451618B
:10596800552372F0E0EDF4E0FA93EA93E1EDFA934F
:10597800EA93E2EDFA93EA930E94B11A279627C0B8
:10598800103029F4003819F40E94CB1E64C06894C2
:1059980062F8A8E6B0E05FEF0E9451615523FAF47F
:1059A800ABE6B0E055270E9451615523C2F0E4ED03
:1059B800F4E0FA93EA93E5EDFA93EA93E6EDFA93C5
:1059C800EA93E7EDFA93EA930E94071B2996E0ED24
:1059D800F4E008811127E00FF11F10814CC0689492
:1059E80062F8A8ECB0E05FEF0E9451615523A2F481
:1059F800ABEDB0E055270E94516155236AF0E6E00F
:105A0800F0E00091D5081091D608085C1040000F0E
:105A1800111FE00FF11F1DC0689462F8ACEDB0E0F3
:105A28005FEF0E945161552372F4AFEDB0E0552746
:105A38000E94516155233AF0E8E4F0E0088111270B
:105A4800E00FF11F16C0103071F4003E61F4E4E479
:105A5800F0E00E94415A0093D9081093DA08CF93D6
:105A6800DF9325DE11C1103061F4013E51F4E0E40A
:105A7800F0E00E94385A1093E008CF93DF9348DE95
:105A880003C11030D9F4003FC9F4CF93DF930EDD82
:105A9800DF91CF91CF93DF9318E0612A09E118E5F0
:105AA8001A930A93E9E1F4EC0E94295CEEE2F0E033
:105AB8000E943A5C1DE50E94115F26C0103079F4FF
:105AC8000D3F69F4CF93DF9318E0612A09E118E5E7
:105AD8001A930A93E1EEF8E00E94315C15C0103089
:105AE800C1F40E3FB1F4CF93DF93E0DCDF91CF91A7
:105AF800CF93DF9318E0612A09E118E51A930A9316
:105B0800EFE1F3EC0E94295CDF91CF910E94931C96
:105B1800D5C0103019F40F3F09F4B1C01330C1F4E7
:105B28000E3DB1F40E94152318E01A930091C8089D
